:400000000080002011000000390300003903000080B500AF47F2BC63C4F2000344F2FA62C4F2000212681A6000F08AF910B5054C237833B9044810B10448AFF300800121B7
:40004000217010BD2881FF1F00000000C04D000008B5064B1BB106480649AFF300800648016811B1054A02B1904708BD00000000C04D00002C81FF1F0881FF1F000000001F
:4000800080B500AF04F09EFA03F078FC03F094FC04F00AF804F0BAF804F0C8FD4CF29873C4F200034CF29872C4F200021278D2B242F00102D2B21A7062B64FF000004FF0A8
:4000C000020100F02FFF00BF48F27C13C1F6FF731B78DBB2002BF7D000E000BF01F080F90346002BF9D001F087F90346002B2BD04FF0000001F0A2F903461A4648F24413F1
:40010000C1F6FF731A7048F24413C1F6FF731B78012B03D14FF0020001F0EAFA48F24413C1F6FF731B78022B03D14FF0040001F0DFFA48F24413C1F6FF731B78032B03D1FF
:400140004FF0060001F0D4FA48F24413C1F6FF731B78022B06D0032B07D0012B08D100F009F806E000F05AF803E000F0AFF800E000BFB2E780B582B000AF4FF0020001F00E
:400180006FF90346012B44D14FF0020001F082F90346DAB248F25C13C1F6FF731A7048F25C13C1F6FF731B784FF0020048F26011C1F6FF711A4601F04FFA4FF000037B6040
:4001C00016E000BF4FF0000003F00AFC0346002BF8D003F02FFC0346DAB248F26013C1F6FF7379685B181A707B6803F101037B607B68072BE5DD4FF0010048F26011C1F600
:40020000FF714FF0080201F07FF94FF0020001F06FFA07F10807BD4680BD00BF80B582B000AF4FF0040001F01BF90346012B49D14FF0040001F02EF90346DAB248F2701321
:40024000C1F6FF731A7048F27013C1F6FF731B784FF0040048F27411C1F6FF711A4601F0FBF94FF000037B601BE000BF4CF28473C4F200031B78DBB203F00803002BF5D011
:400280004FF0000003F026FF03461A4648F27413C1F6FF7379685B181A707B6803F101037B607B68072BE0DD4FF0030048F27411C1F6FF714FF0080201F026F94FF004002A
:4002C00001F016FA07F10807BD4680BD80B500AF4FF0060001F0C4F80346012B2AD14FF0060001F0D7F80346DAB248F27113C1F6FF731A7048F27113C1F6FF731B784FF06C
:40030000060048F26811C1F6FF711A4601F0A4F948F27113C1F6FF731B784FF0050048F26811C1F6FF711A4601F0EEF84FF0060001F0DEF980BD00BF80B400AFFEE700BF90
:4003400080B586B000AF40F20103C0F200037B6146F26463C0F200033B6140F20103C0F200037B6146F26463C0F200033B613BE03B691B68FB603B695B68BB603B699B686F
:400380003B604FF000037B600FE0FB681A68BB681A60BB6803F10403BB60FB6803F10403FB607B6803F104037B607A683B689A42EBD13B69DB683B604FF000037B600BE0C2
:4003C000BB684FF000021A60BB6803F10403BB607B6803F104037B607A683B689A42EFD13B6903F110033B617B69002B0CBF00230123DBB27A6902F1FF327A61002BB7D182
:4004000004F0A6FCFFF73CFEFEE700BF80B582B000AF4EF60C53CEF200034FF48062C0F2FA521A604EF61453CEF200034EF61452CEF20002126842F400721A604FF0000381
:400440007B6019E07B68032B07D840F20003C0F200037A6853F8223003E040F23933C0F2000348F20002C1F6FF72796842F821307B6803F101037B607B682F2BE2D947F262
:40048000BC63C4F200031B78DAB248F20413C1F6FF731A704EF60853CEF2000348F20002C1F6FF721A6000F0A5F900F091FA48F20013C1F6FF734FF000021A6007F10807C0
:4004C000BD4680BD80B582B000AF7860396078684FF000013A6804F06AFC07F10807BD4680BD00BF80B584B000AFF860B9607A60F868B9687A6804F051FC07F11007BD46FA
:4005000080BD00BF80B483B000AF0346FB71FEE780B487B000AF786039604FF000033B614FF000037B612CE07B694FEA83037A68D3181B68BB60BB68FB73BB6823F0FF03A5
:40054000BB6017E03B694FEA43033A68D3181B781A46BB68D3183A694FEA420239688A1852781A703B6903F101033B61FB7B03F1FF33FB73FB7B002BE4D17B6903F101038D
:400580007B617B69192BCFD907F11C07BD4680BC704700BF80B582B000AF4FF48143C4F200034FF000021A8044F28203C4F200034FF050021A7044F28403C4F2000346F2D1
:4005C00001321A8044F28603C4F200034FF018021A704FF48240C4F200004FF4AA71C4F600014FF00402FFF77DFF4FF48643C4F200034FF006021A704FF48443C4F20003EF
:400600004FF052021A7044F2A163C4F2000340F20F12C4F600121278D2B21A7044F22223C4F2000340F621321A8044F22023C4F2000341F251221A804FF00003FB704FF03E
:4006400019037B6019E0FB784FEA4303DAB244F22523C4F200031B78DBB203F00103DBB21343DBB203F00303FB704FF4F07000F09BF97B6803F1FF337B607B68002B02D0FF
:40068000FB78032BDFD17B68002B03D14FF00300FFF738FF44F20403C4F200034FF480721A8044F20403C4F200034FF007021A7044F20603C4F200034FF000021A7044F212
:4006C0000803C4F200034FF048021A7044F20403C4F200034FF000021A7044F20903C4F200034FF000021A7044F20103C4F200034FF002021A7044F20B03C4F200034FF0A0
:4007000004021A7044F2A233C4F2000344F2A232C4F200021278D2B242F00302D2B21A7044F2A133C4F2000344F2A132C4F200021278D2B242F00102D2B21A7044F2A03372
:40074000C4F2000344F2A032C4F200021278D2B262F07F02D2B21A7007F10807BD4680BD80B483B000AF40F2CF13C4F600131B78FB7145F66E03C4F20003FA7902F0070201
:40078000D2B21A7045F66F03C4F20003FA794FEA1212D2B21A7045F26D13C4F200034FF001021A7045F66C03C4F200034FF00C021A704FF4B643C4F200034FF001021A70B0
:4007C00045F60333C4F200034FF040021A7045F64433C4F2000340F205121A8045F67603C4F200034FF044021A7007F10C07BD4680BC704780B582B000AF72B64FF49043A5
:40080000C4F200034FF001021A70FFF7C3FE44F2E863C4F2000344F2E862C4F200021278D2B242F00402D2B21A704FF00003FB7119E0FA7913464FEA43039B184FEA430392
:4008400044F6C452C0F200029B183B603B681A683B689B889BB210461946FFF733FEFB7903F10103FB71FB79062BE2D94FF090404FF06801C4F60001FFF74AFE45F6830369
:40088000C4F200034FF00A021A704FF4EC40C4F200004FF00401FFF715FE47F20860C4F200004FF00401FFF70DFE45F20303C4F2010345F20302C4F201021278D2B242F070
:4008C0000202D2B21A7045F21303C4F2010345F21302C4F201021278D2B242F00202D2B21A7044F2A033C4F2000344F2A032C4F200021278D2B242F04002D2B21A7044F240
:40090000C233C4F2000344F2C232C4F200021278D2B242F01002D2B21A7045F20210C4F200004FF49C71C4F600014FF00802FFF7D9FD45F2F010C4F200004FF4A071C4F6AD
:4009400000014FF00A02FFF7CDFD45F26210C4F200004FF4A671C4F600014FF00802FFF7C1FD44F22233C4F2000344F22232C4F200021278D2B242F00802D2B21A70FFF726
:40098000EFFE44F2B030C4F2000044F2A031C4F200014FF00E02FFF7A5FD07F10807BD4680BD00BF000000000230800800F0058000BF013800467FF4FCAF7047EFF310801F
:4009C00072B6704780F31088704700BFAFF3008080B483B000AF48F20D13C1F6FF734FF07F021A7048F20C13C1F6FF734FF080021A704FF07F03FB710FE0FB794FEAC30336
:400A000003F1804303F5F043FA7902F1FF32D2B21A70FB7903F1FF33FB71FB79002BECD1FB794FEAC30303F1804303F5F0434FF000021A7007F10C07BD4680BC704700BFED
:400A400080B485B000AF02460B46FA71BB714FF00103FB60FB79172B48D8BB79002B16D0FB794FEA031247F21003C4F20003D318FA794FEA021147F21002C4F200028A185F
:400A80001278D2B242F02002D2B21A7015E0FB794FEA031247F21003C4F20003D318FA794FEA021147F21002C4F200028A181278D2B222F02002D2B21A70FB794FEA0312A9
:400AC00047F21003C4F20003D318FA794FEA021147F21002C4F200028A181278D2B242F00102D2B21A704FF00003FB60FB68184607F11407BD4680BC704700BF80B485B0C2
:400B000000AF02460B46FA71BB714FF00103FB60FB79172B22D8FB794FEA031247F21003C4F20003D3181B78DBB223F00E03FB72FB794FEA031247F21003C4F20003D31873
:400B4000BA7902F00702D2B24FEA4202D1B2FA7A0A43D2B21A704FF00003FB60FB68184607F11407BD4680BC704700BF80B485B000AF13460246FA710A46BA807B804FF0E6
:400B80000103FB60BA8841F6FF739A4202D14FF40053BB807A8841F6FF739A4202D14FF400537B80FB79172B1CD8FB794FEAC30303F1804303F5EC4303F10403BB60BB684C
:400BC000BA881A80FB794FEAC30303F1804303F5EC4303F10603BB60BB687A881A804FF00003FB60FB68184607F11407BD4680BC704700BF80B485B000AF02460B46FA71AF
:400C0000BB714FF00103FB60FB79172B0CD8FB794FEA031247F21003C4F20003D318BA795A724FF00003FB60FB68184607F11407BD4680BC704700BF80B485B000AFF871F8
:400C4000B9717A713B714FF00103FB60FB79172B3CD8FB794FEAC30303F1804303F5EC43BA7902F07F02D1B27A794FEAC212D2B20A43D2B21A70FB794FEAC30303F18043C8
:400C800003F5EC433A7E4FEA0212D1B23A7902F00F02D2B20A43D2B25A70FB794FEAC30303F1804303F5EC433A7F02F00F02D2B29A70FB794FEAC30303F1804303F5EC43C4
:400CC0004FF00002DA704FF00003FB60FB68184607F11407BD4680BC704700BF80B582B000AF4FF0FF03FB71FFF768FE0346BB7148F20C13C1F6FF731B78182B20D948F224
:400D00000D13C1F6FF731B78FB7148F20C13C1F6FF731B7803F1FF33DAB248F20C13C1F6FF731A70FB794FEAC30303F1804303F5F0431B78DAB248F20D13C1F6FF731A7017
:400D4000BB791846FFF73EFEFB79184607F10807BD4680BD80B485B000AFF871B980BA71FB704FF00103FB60FB795BB2002B27DBBB8823F47F6323F00F039BB2002B1FD131
:400D8000FB794FEAC30303F1804303F5F043BB60BB68BA881A80FB794FEAC30303F1804303F5F043BA799A70FB794FEAC30303F1804303F5F043FA78DA704FF00003FB6084
:400DC000FB68184607F11407BD4680BC704700BF80B485B000AF13460246FA710A46BA807B804FF00103FB60FB795BB2002B1CDBFB794FEAC30303F1804303F5F04303F137
:400E00000403BB60BB68BA881A80FB794FEAC30303F1804303F5F04303F10603BB60BB687A881A804FF00003FB60FB68184607F11407BD4680BC704780B483B000AF03469F
:400E4000FB7101BE07F10C07BD4680BC704700BF80B582B000AF0346FB80FA8848F21C13C1F6FF731B7803FB02F31846FFF79CFD07F10807BD4680BD80B584B000AF03467E
:400E80003960FB714EF60853CEF200031B68FB60FB791F2B03D94FF00000FFF7CDFFFB7903F01F0303F110034FEA8303FA68D3181B68BB60FB7903F01F0303F110034FEA4F
:400EC0008303FA68D3183A681A60BB68184607F11007BD4680BD00BF80B582B000AF02460B46FA71BB71BB79072B03D94FF00000FFF7A2FFFB791F2B03D94FF00000FFF747
:400F00009BFFFB7903F01F0303F1604303F56443BA794FEA4212D2B21A7007F10807BD4680BD00BF80B582B000AF02460B46FA71BB7148F24513C1F6FF731B78002B08D1EC
:400F400000F012F848F24513C1F6FF734FF001021A70FA79BB791046194600F04BF907F10807BD4680BD00BF80B582B000AFFFF725FD0346FB7144F2A533C4F2000344F27A
:400F8000A532C4F200021278D2B242F00102D2B21A7044F2B533C4F2000344F2B532C4F200021278D2B242F00102D2B21A7046F29D03C4F200034FF001021A7046F20903B3
:400FC000C4F200034FF002021A7046F21003C4F2000346F21002C4F200021278D2B202F07F02D2B21A704FF00000FFF731FF44F29433C4F2000344F29432C4F2000212787D
:40100000D2B222F00602D2B21A7046F21203C4F2000346F21202C4F200021278D2B222F02002D2B21A7044F29433C4F2000344F29432C4F200021278D2B242F00102D2B279
:401040001A704FF00100FFF703FF4FF02800FFF7FFFE45F2F813C4F2000345F2F812C4F200021278D2B202F07F02D2B21A7045F2F813C4F2000345F2F812C4F20002127853
:40108000D2B222F04002D2B21A7044F29433C4F2000344F29432C4F200021278D2B242F00202D2B21A704FF00200FFF7D1FE44F29433C4F2000344F29432C4F20002127894
:4010C000D2B242F00402D2B21A7046F28403C4F200034FF000021A7046F28503C4F200034FF000021A70FB791846FFF76BFC4FF0170042F2D911C0F20001FFF7BDFE4FF059
:4011000017004FF00701FFF7E7FE4FF0150042F2CD11C0F20001FFF7AFFE4FF015004FF00701FFF7D9FE4FF0180041F26971C0F20001FFF7A1FE4FF018004FF00701FFF712
:40114000CBFE4FF0000041F6F561C0F20001FFF793FE4FF000004FF00701FFF7BDFE4FF0010041F66971C0F20001FFF785FE4FF001004FF00701FFF7AFFE4FF0020041F64A
:40118000DD71C0F20001FFF777FE4FF002004FF00701FFF7A1FE4FF0030042F25901C0F20001FFF769FE4FF003004FF00701FFF793FE4FF0040042F2D501C0F20001FFF7C0
:4011C0005BFE4FF004004FF00701FFF785FE4FF0050042F25111C0F20001FFF74DFE4FF005004FF00701FFF777FE07F10807BD4680BD00BF80B582B000AF02460B46FA71AF
:40120000BB714FF46143CEF200034FF400021A604FF46143CEF200034FF080721A604FF46143CEF200034FF001021A604FF46143CEF200034FF002021A604FF46143CEF250
:4012400000034FF004021A604FF46143CEF200034FF008021A604FF46143CEF200034FF010021A604FF46143CEF200034FF020021A6048F29613C1F6FF734FF000021A706E
:40128000BB79002B02D0012B08D00FE046F20903C4F200034FF002021A700FE046F20903C4F200034FF003021A7007E046F20903C4F200034FF003021A7000BF48F2901338
:4012C000C1F6FF73FA791A7048F29513C1F6FF734FF000021A7048F29113C1F6FF734FF000021A7048F29413C1F6FF734FF000021A7048F27C13C1F6FF734FF000021A708E
:4013000048F29313C1F6FF734FF000021A7048F20D23C1F6FF734FF000021A7046F22803C4F200034FF003021A7046F20803C4F200034FF080021A704FF00100FFF734FBE5
:4013400046F21203C4F200034FF004021A7007F10807BD4680BD00BF80B400AF48F29613C1F6FF734FF000021A7048F29513C1F6FF734FF000021A7048F29113C1F6FF73FB
:401380004FF000021A7048F29413C1F6FF734FF000021A7048F27C13C1F6FF734FF000021A7048F29313C1F6FF734FF000021A7048F20D23C1F6FF734FF000021A7046F266
:4013C0002803C4F200034FF003021A7046F20803C4F200034FF080021A70BD4680BC704780B400AF48F29513C1F6FF731B78DBB21846BD4680BC704780B483B000AF4FF047
:401400000003FB7148F29413C1F6FF731B78DBB2002B0CD048F29413C1F6FF731B78FB7148F29413C1F6FF734FF000021A70FB79184607F10C07BD4680BC704780B483B0F4
:4014400000AF0346FB71FA7948F28013C1F6FF739B5CDBB2184607F10C07BD4680BC704780B483B000AF0346FB71F97948F2A012C1F6FF720B464FEA43035B184FEA830369
:40148000D3185B78DBB2184607F10C07BD4680BC704700BF80B485B000AF0346FB714FF00003FB81FB79002B27D0FB79082B24D8FB7903F1FF33DBB24FEA03137B737A7BA6
:4014C00046F20C03C4F20003D3181B78DBB203F00F03FB81FB894FEA03239AB2797B46F20D03C4F20003CB181B78DBB213439BB2FB81FB89A3F10203FB81FB89184607F1A7
:401500001407BD4680BC704790B484B000AF396013460246FA71BB80FB79002B00F09680FB79082B00F29280FB7903F1FF33DBB24FEA03137B737A7B46F28803C4F200036E
:40154000D318BB60B888F97948F2A012C1F6FF720B464FEA43035B184FEA8303D318DB889BB2C3F50073984210D9F97948F2A012C1F6FF720B464FEA43035B184FEA83038C
:40158000D318DB889BB2C3F50073BB807A7B46F20C03C4F20003D3181846BB884FEA13239BB2DCB2F97948F2A012C1F6FF720B464FEA43035B184FEA8303D318DB78DBB20C
:4015C0002343DBB203707A7B46F20D03C4F20003D318BA88D2B21A703B68002B11D04FF00003FB8109E0FB893A68D3181A78BB681A70FB8903F10103FB81FA89BB889A4214
:40160000F1D3F97948F2A012C1F6FF720B464FEA43035B184FEA8303D3184FF000025A707A7B46F20E03C4F20003D3181846F97948F2A012C1F6FF720B464FEA43035B185F
:401640004FEA8303D3185B79DBB2037007F11007BD4690BC704700BF80B586B000AF396013460246FA71BB80FB79002B37D0FB79082B34D83B68002B31D0FB7903F1FF335C
:40168000DBB24FEA03137B757A7D46F28803C4F20003D3183B61FB791846FFF7FBFE0346FB81BA88FB899A4201D9FB89BB804FF00003FB820AE0FB8A3A68D3183A691278BB
:4016C000D2B21A70FB8A03F10103FB82FA8ABB889A42F0D3FB79184600F00AF802E04FF00003BB80BB88184607F11807BD4680BD80B485B000AF0346FB71FB79002B2ED0F7
:40170000FB79082B2BD8FB7903F1FF33DBB24FEA0313FB73F97948F2A012C1F6FF720B464FEA43035B184FEA8303D3184FF000025A70FA7B46F20E03C4F20003D3181846DD
:40174000F97948F2A012C1F6FF720B464FEA43035B184FEA8303D3185B79DBB2037007F11407BD4680BC704780B582B000AF46F22803C4F200031B78BB71BB7903F01003EE
:40178000002B00F08C804FF00103FB71BB795BB2002B18DABB7903F00F03012B03D04FF00003FB7122E000F07FF848F27D13C1F6FF731B78DBB2DBB25BB2002B16DA4FF09F
:4017C0000003FB7112E0BB7903F04003002B02D000F0BEF80AE0BB7903F02003002B02D000F0DEF802E04FF00003FB71FB79002B55D046F22803C4F200031B78BB71BB7921
:401800005BB2002B4BDB48F29213C1F6FF731B78DAB248F20E23C1F6FF731B78DBB21343BB7146F22903C4F20003BA791A7046F22903C4F200031B78DBB2BA799A422ED1C8
:4018400048F27D13C1F6FF731B78FB7146F22803C4F200031B78DBB223F07F03BB71BB79002B13D146F22803C4F2000348F27D12C1F6FF721278D2B21A7046F22803C4F278
:4018800000031B78DBB203F00F03FB7148F27D13C1F6FF731B78DBB2FA799A42D0D107F10807BD4680BD00BF80B582B000AF46F22803C4F200031B78FB7146F22803C4F241
:4018C0000003FA791A7046F22803C4F200031B78FB71FB795BB2002B06DA48F27D13C1F6FF73FA791A702EE04FF0020000F0B2FA4FF4C043C4F200031B78DBB203F06003F1
:40190000202B08D0402B0BD0002B0ED100F06AFC0346FB710DE003F0C9F90346FB7108E001F050FE0346FB7103E04FF00003FB7100BFFB79002B06D148F27D13C1F6FF733D
:401940004FF003021A7007F10807BD4680BD00BF80B500AF48F29613C1F6FF731B78DBB2062B1AD801A252F823F000BF9B1900009B190000891900009B1900008F1900003B
:401980009B1900009519000000F04AF906E000F0F5F903E000F02CFA00E000BF80BD00BF80B500AF48F29613C1F6FF731B78DBB2062B23D801A252F823F000BFFD19000029
:4019C000FD190000D9190000FD190000DF190000FD190000E519000000F028F90FE000F04FF90CE04FF0030000F034FA48F27D13C1F6FF734FF003021A7000E000BF80BD9C
:401A000080B483B000AF4FF00003FB7148F20D23C1F6FF731B78DBB21A4648F21023C1F6FF731B889BB2D3189AB248F21023C1F6FF731A802BE0FB7903F1804303F5C043B1
:401A40001A4648F28413C1F6FF735B681B78DBB2137048F28413C1F6FF735B6803F1010248F28413C1F6FF735A60FB7903F10103FB7148F28413C1F6FF731B889BB203F188
:401A8000FF339AB248F28413C1F6FF731A8048F28413C1F6FF731B889BB2002B02D0FB79072BC8D948F20D23C1F6FF731B78DBB2082B02D0FB79002B1ED048F29213C1F60B
:401AC000FF731B78DBB283F07F036FEA0303DAB248F29213C1F6FF731A7048F27D13C1F6FF734FF00F021A7048F29613C1F6FF734FF002021A700DE048F27D13C1F6FF735C
:401B00004FF002021A7048F29613C1F6FF734FF002021A7048F20D23C1F6FF73FA791A7048F20E23C1F6FF73FA791A7007F10C07BD4680BC704700BF80B582B000AF48F2CE
:401B40008413C1F6FF731B889BB2002B02D100F03BF832E048F29613C1F6FF734FF002021A7048F29213C1F6FF734FF000021A7000F09CF946F20703C4F200031B78DBB236
:401B80004FEA03239AB246F20603C4F200031B78DBB213439BB2FB8048F28413C1F6FF731B889BB2FA889A4205D248F28413C1F6FF73FA881A80FFF723FF4FF00103184654
:401BC00007F10807BD4680BD80B400AF48F29613C1F6FF734FF002021A7048F29213C1F6FF734FF080021A7048F27D13C1F6FF734FF00F021A7048F20D23C1F6FF734FF0F0
:401C000000021A7048F20E23C1F6FF734FF000021A704FF001031846BD4680BC704700BF80B500AFFFF7ECFE80BD00BF80B500AF48F20D23C1F6FF731B78DBB21A4648F272
:401C40001023C1F6FF731B889BB2D3189AB248F21023C1F6FF731A8048F29613C1F6FF734FF000021A704FF0010000F0F3F848F27D13C1F6FF734FF003021A7080BD00BF02
:401C800080B483B000AF4FF00003BB7146F22903C4F200031B78DBB203F00F03DBB2A3F10203FB71FB799AB248F21023C1F6FF731B889BB2D3189AB248F21023C1F6FF73B9
:401CC0001A802EE048F28413C1F6FF735A68BB7903F1804303F5C0431B78DBB2137048F28413C1F6FF735B6803F1010248F28413C1F6FF735A60BB7903F10103BB71FB79C3
:401D000003F1FF33FB7148F28413C1F6FF731B889BB203F1FF339AB248F28413C1F6FF731A8048F28413C1F6FF731B889BB2002B02D0FB79002BC5D148F20E23C1F6FF7371
:401D4000FA791A7048F29213C1F6FF731B78DBB283F07F036FEA0303DAB248F29213C1F6FF731A7048F27D13C1F6FF734FF00B021A7007F10C07BD4680BC704780B500AF1E
:401D800048F29613C1F6FF734FF000021A704FF0010000F05FF848F27D13C1F6FF734FF003021A7080BD00BF80B400AF48F29613C1F6FF734FF006021A7048F27D13C1F6C7
:401DC000FF734FF006021A7048F29213C1F6FF734FF080021A7048F20E23C1F6FF734FF000021A704FF001031846BD4680BC704780B500AF48F27C13C1F6FF731B78DBB261
:401E0000002B14D046F20803C4F2000348F27C12C1F6FF721278D2B262F07F02D2B21A7048F27C13C1F6FF734FF000021A7048F29613C1F6FF734FF000021A704FF00100E4
:401E400000F008F848F27D13C1F6FF734FF003021A7080BD80B483B000AF0346FB7148F28413C1F6FF739B68002B19D048F28413C1F6FF739B68FA791A7048F28413C1F616
:401E8000FF739A6848F21023C1F6FF731B889BB2538048F28413C1F6FF734FF000029A6007F10C07BD4680BC704700BF80B400AF48F21023C1F6FF734FF000021A8048F2D2
:401EC0008413C1F6FF739B68002B0FD048F28413C1F6FF739B684FF000021A7048F28413C1F6FF739B684FF000025A80BD4680BC704700BF80B400AF46F20E03C4F200039B
:401F00001B7848F2A013C1F6FF731B7BDBB203F00303012B0FD048F2A013C1F6FF73DB7BDBB283F07F036FEA0303DAB248F2A013C1F6FF73DA7348F2A013C1F6FF734FF040
:401F400001025A7346F20B03C4F2000346F20B02C4F200021278D2B222F00102D2B21A70BD4680BC704700BF80B400AF46F21E03C4F200031B7848F2A013C1F6FF731B7E78
:401F8000DBB203F00303012B0FD048F2A013C1F6FF73DB7EDBB283F07F036FEA0303DAB248F2A013C1F6FF73DA7648F2A013C1F6FF734FF001025A7646F20B03C4F2000327
:401FC00046F20B02C4F200021278D2B222F00202D2B21A70BD4680BC704700BF80B400AF46F22E03C4F200031B7848F2A013C1F6FF7393F82430DBB203F00303012B11D0DD
:4020000048F2A013C1F6FF7393F82730DBB283F07F036FEA0303DAB248F2A013C1F6FF7383F8272048F2A013C1F6FF734FF0010283F8252046F20B03C4F2000346F20B0207
:40204000C4F200021278D2B222F00402D2B21A70BD4680BC704700BF80B400AF46F23E03C4F200031B7848F2A013C1F6FF7393F83030DBB203F00303012B11D048F2A01396
:40208000C1F6FF7393F83330DBB283F07F036FEA0303DAB248F2A013C1F6FF7383F8332048F2A013C1F6FF734FF0010283F8312046F20B03C4F2000346F20B02C4F2000298
:4020C0001278D2B222F00802D2B21A70BD4680BC704700BF80B400AF46F24E03C4F200031B7848F2A013C1F6FF7393F83C30DBB203F00303012B11D048F2A013C1F6FF7385
:4021000093F83F30DBB283F07F036FEA0303DAB248F2A013C1F6FF7383F83F2048F2A013C1F6FF734FF0010283F83D2046F20B03C4F2000346F20B02C4F200021278D2B20E
:4021400022F01002D2B21A70BD4680BC704700BF80B400AF46F25E03C4F200031B7848F2A013C1F6FF7393F84830DBB203F00303012B11D048F2A013C1F6FF7393F84B30E8
:40218000DBB283F07F036FEA0303DAB248F2A013C1F6FF7383F84B2048F2A013C1F6FF734FF0010283F8492046F20B03C4F2000346F20B02C4F200021278D2B222F020023C
:4021C000D2B21A70BD4680BC704700BF80B400AFBD4680BC704700BF80B500AFFFF7BCF880BD00BF80B586B000AF4FF00003FB754FF000033B6148F28413C1F6FF734FF017
:4022000000021A804FF4C043C4F200031B78DBB2DBB25BB2002B80F2678146F20103C4F200031B78DBB20A2B00F2C98201A252F823F000BFAD230000BF270000BF270000E2
:40224000BF270000BF270000BF27000061220000BF27000083240000BF270000AD24000046F20303C4F200031B78DBB2012B15D100F0A6FFB860BB685A6848F28413C1F6A2
:40228000FF735A6048F28413C1F6FF734FF012021A80FFF751FC0346FB7592E246F20303C4F200031B78DBB2022B36D146F20203C4F200031B78DBB2184600F051FFB86084
:4022C000BB68002B00F07D82BB685A6848F28413C1F6FF735A6048F28413C1F6FF735B6803F103031B78DBB24FEA03239AB248F28413C1F6FF735B6803F102031B78DBB2B0
:4023000013439BB29AB248F28413C1F6FF731A80FFF712FC0346FB7553E246F20303C4F200031B78DBB2032B3BD14FF00003FB7346F2A043C0F200033B610AE03B691B789A
:40234000FB71FB793A69D3183B61FB7B03F10103FB7346F20203C4F200031B78DBB2FA7B9A4204D23B691B78DBB2002BE6D13B691B78DBB2002B00F024823B691B78DBB24B
:402380001A4648F28413C1F6FF731A8048F28413C1F6FF733A695A60FFF7CEFB0346FB750FE202F083FC0346FB750AE24FF4C043C4F200031B78DBB203F00303002B37D009
:4023C000022B5CD148F28413C1F6FF734FF002021A8046F20403C4F200031B78DBB203F07F0148F2A012C1F6FF720B464FEA43035B184FEA8303D3189B78DAB248F24813EC
:40240000C1F6FF731A7048F24813C1F6FF734FF000025A7048F28413C1F6FF7348F24812C1F6FF725A60FFF787FB0346FB7527E048F28413C1F6FF734FF002021A8048F267
:402440009313C1F6FF731B78DAB248F24813C1F6FF731A7048F24813C1F6FF734FF000025A7048F28413C1F6FF7348F24812C1F6FF725A60FFF760FB0346FB7500E000BF44
:40248000A6E148F28413C1F6FF734FF001021A8048F28413C1F6FF7348F29512C1F6FF725A60FFF749FB0346FB7591E148F28413C1F6FF734FF001021A8046F20403C4F2D2
:4024C00000031B78DBB21A4648F28013C1F6FF73D21848F28413C1F6FF735A60FFF72CFB0346FB7500BF73E146F20103C4F200031B78DBB203F1FF330A2B00F2648101A2F2
:4025000052F823F01F260000C7270000EF260000C727000031250000C7270000C7270000C727000051250000C7270000C525000046F20203C4F200031B78DAB248F27C13BC
:40254000C1F6FF731A70FFF72FFC0346FB753FE146F20203C4F200031B78BB71BB79002B07D0BB7903F1FF33DBB2184600F0F8FDB860BB79002B02D0BB68002B03D1BB79FA
:40258000002B40F0228148F29513C1F6FF731B78DBB2BA799A4210D048F29513C1F6FF73BA791A7048F29413C1F6FF734FF001021A704FF0010000F013FAFFF7F5FB0346F9
:4025C000FB7502E100F0B6FF0346002B00F0FF8046F20403C4F200031B787B7148F29113C1F6FF737A791A7048F29413C1F6FF734FF001021A7000F009FC7A79797948F21B
:402600008013C1F6FF735B5CD9B248F20C23C1F6FF739954FFF7C8FB0346FB75D7E04FF4C043C4F200031B78DBB203F00303012B2BD0012B0ED3022B52D146F20203C4F265
:4026400000031B78DBB2002B4BD100F091FE0346FB7546E046F20203C4F200031B78DBB2012B40D148F29313C1F6FF731B78DBB223F00203DAB248F29313C1F6FF731A70DF
:40268000FFF792FB0346FB752DE046F20403C4F200031B78DBB2002B27D146F20403C4F200031B78DBB21A46194648F29813C1F6FF735B5CD9B246F20203C4F200031B78E6
:4026C000DBB26FEA0303DBB20B40D9B248F29813C1F6FF739954FFF767FB0346FB7504E004E000BF02E000BF00E000BF70E04FF4C043C4F200031B78DBB203F00303012B24
:402700002BD0012B0ED3022B52D146F20203C4F200031B78DBB2002B4BD100F091FD0346FB7546E046F20203C4F200031B78DBB2012B40D148F29313C1F6FF731B78DBB20B
:4027400043F00203DAB248F29313C1F6FF731A70FFF72AFB0346FB752DE046F20403C4F200031B78DBB2002B27D146F20403C4F200031B78DBB21A46194648F29813C1F673
:40278000FF735B5CD9B246F20203C4F200031B78DBB26FEA0303DBB20B40D9B248F29813C1F6FF739954FFF7FFFA0346FB7504E004E000BF02E000BF00E000BF08E000BF7C
:4027C00006E000BF04E000BF02E000BF00E000BFFB7D184607F11807BD4680BD80B483B000AF4FF00103FB714FF00003BB71E5E0BB7903F1804303F5C1434FF00C021A706E
:40280000F97948F2A012C1F6FF720B464FEA43035B184FEA8303D3185B79DBB2002B25D0F97948F2A012C1F6FF720B464FEA43035B184FEA8303D3181B79DBB2DBB25BB276
:40284000002B09DABA7946F20E03C4F20003D3184FF00C021A7012E0BA7946F20E03C4F20003D3184FF008021A7008E0BA7946F20E03C4F20003D3184FF080021A70BA79E8
:4028800046F20C03C4F20003D3181846F97948F2A012C1F6FF720B464FEA43035B184FEA8303D31803F108031B889BB24FEA13239BB2DBB20370BA7946F20D03C4F200037D
:4028C000D3181846F97948F2A012C1F6FF720B464FEA43035B184FEA8303D31803F108031B889BB2DBB20370BA7946F28603C4F20003D3181846F97948F2A012C1F6FF72B1
:402900000B464FEA43035B184FEA8303D318DB889BB2DBB20370BA7946F28703C4F20003D3181846F97948F2A012C1F6FF720B464FEA43035B184FEA8303D318DB889BB2E0
:402940004FEA13239BB2DBB20370BA7946F28403C4F20003D3181846F97948F2A012C1F6FF720B464FEA43035B184FEA8303D318DB889BB2DBB20370BA7946F28503C4F2DB
:402980000003D3181846F97948F2A012C1F6FF720B464FEA43035B184FEA8303D318DB889BB24FEA13239BB2DBB20370FB7903F10103FB71BB7903F11003BB71BB795BB26C
:4029C000002BBFF615AF46F20A03C4F200034FF0FF021A7007F10C07BD4680BC704700BF80B588B000AF0346FB714FF000037B834FF00003FB7770E0F97F48F2A012C1F67B
:402A0000FF720B464FEA43035B184FEA8303D3184FF000021A70F97F48F2A012C1F6FF720B464FEA43035B184FEA8303D3184FF000029A70F97F48F2A012C1F6FF720B46CC
:402A40004FEA43035B184FEA8303D3184FF000025A70F97F48F2A012C1F6FF720B464FEA43035B184FEA8303D3184FF00002DA70F97F48F2A012C1F6FF720B464FEA43034F
:402A80005B184FEA8303D3184FF000025A71F97F48F2A012C1F6FF720B464FEA43035B184FEA8303D31803F108034FF000021A80F97F48F2A012C1F6FF720B464FEA43033E
:402AC0005B184FEA8303D31803F108034FF000029A70FB7F03F10103FB77FB7F082B8BD9FB79002B1AD04FF000037B7713E07A7F48F28013C1F6FF734FF0000199547A7FB5
:402B000048F20C23C1F6FF734FF0000199547B7F03F101037B777B7F002BE8D048F29513C1F6FF731B78DBB2002B00F06B8148F29513C1F6FF731B78DBB203F1FF33DBB205
:402B4000184600F00DFB38613B695B68FB60FB6803F107031B7803F04003002B0ED048F29313C1F6FF731B78DBB243F00103DAB248F29313C1F6FF731A700DE048F2931325
:402B8000C1F6FF731B78DBB223F00103DAB248F29313C1F6FF731A703B6903F108033B613B691B78FB774FF001037B77C8E03B695B687B614FF00003BB77B8E07A7F7B69A5
:402BC0009B7803F07F039A4240F0A980797F48F2A012C1F6FF720B464FEA43035B184FEA8303D31803F108031B889AB27B699B889A4211D2797F7B69988848F2A012C1F6CC
:402C0000FF720B464FEA43035B184FEA8303D31803F1080302461A807B691B781A4648F28013C1F6FF739B5CDAB27B695B789A4275D17B69DB7803F00303FB727B699B7898
:402C4000DBB25BB2002B25DA797F48F2A012C1F6FF720B464FEA43035B184FEA8303D3184FF001025A70787FFB7A012B02D14FF0070101E04FF00D0148F2A012C1F6FF7297
:402C800003464FEA43031B184FEA8303D3180A465A7124E0797F48F2A012C1F6FF720B464FEA43035B184FEA8303D3184FF000025A70787FFB7A012B02D14FF0050101E0BB
:402CC0004FF0090148F2A012C1F6FF7203464FEA43031B184FEA8303D3180A465A71797F7B69987848F2A012C1F6FF720B464FEA43035B184FEA8303D31802461A71797FFF
:402D00007B69D87848F2A012C1F6FF720B464FEA43035B184FEA8303D31802461A707B6903F108037B61BB7F03F10103BB77BA7FFB7F9A42FFF442AF7B7F03F101037B7712
:402D40007B7F082B7FF633AF3B695B687B614FF000037B771CE07B699B7803F07F017B69187848F2A012C1F6FF720B464FEA43035B184FEA8303D31803F1080302469A702C
:402D80007B6903F108037B617B7F03F101037B777A7FFB7F9A42DED300F026FA024648F29C13C1F6FF731A604FF00103FB7724E0F97F48F2A012C1F6FF720B464FEA430377
:402DC0005B184FEA8303D3187A8BDA80F97F48F2A012C1F6FF720B464FEA43035B184FEA8303D31803F108031B889AB27B8BD3187B83FB7F03F10103FB77FB7F082BD7D9C0
:402E0000FFF7ECFC07F12007BD4680BD80B584B000AF48F29513C1F6FF731B78DBB2002B00F0998148F29513C1F6FF731B78DBB203F1FF33DBB2184600F092F978607B686B
:402E400003F108037B607B681B78FB707B685B68BB604FF00003FB7378E1BB681B781A4648F28013C1F6FF739B5CDAB2BB681B78194648F20C23C1F6FF735B5CDBB29A4277
:402E800000F05C81BB681B781A4648F28013C1F6FF739B5CDAB2BB685B789A4240F04E81BB681A7846F20403C4F200031B78DBB29A4240F04381BB689B7803F07F03BB7072
:402EC000BB7803F1FF33DBB24FEA03137B70BB68DB7803F003033B70BB689B78DBB25BB2002B25DAB97848F2A012C1F6FF720B464FEA43035B184FEA8303D3184FF001022A
:402F00005A70B8783B78012B02D14FF0070101E04FF00D0148F2A012C1F6FF7203464FEA43031B184FEA8303D3180A465A7124E0B97848F2A012C1F6FF720B464FEA430383
:402F40005B184FEA8303D3184FF000025A70B8783B78012B02D14FF0050101E04FF0090148F2A012C1F6FF7203464FEA43031B184FEA8303D3180A465A717A7846F20E03C9
:402F8000C4F20003D3184FF001021A70B978BB68988848F2A012C1F6FF720B464FEA43035B184FEA8303D31803F1080302461A80B978BB68987848F2A012C1F6FF720B4682
:402FC0004FEA43035B184FEA8303D31802461A71B978BB68D87848F2A012C1F6FF720B464FEA43035B184FEA8303D31802461A70B97848F2A012C1F6FF720B464FEA4303D6
:403000005B184FEA8303D3184FF00002DA707A7846F20C03C4F20003D3181846B97848F2A012C1F6FF720B464FEA43035B184FEA8303D31803F108031B889BB24FEA13231D
:403040009BB2DBB203707A7846F20D03C4F20003D3181846B97848F2A012C1F6FF720B464FEA43035B184FEA8303D31803F108031B889BB2DBB203707A7846F28603C4F23D
:403080000003D3181846B97848F2A012C1F6FF720B464FEA43035B184FEA8303D318DB889BB2DBB203707A7846F28703C4F20003D3181846B97848F2A012C1F6FF720B4696
:4030C0004FEA43035B184FEA8303D318DB889BB24FEA13239BB2DBB203707A7846F28403C4F20003D3181846B97848F2A012C1F6FF720B464FEA43035B184FEA8303D318E3
:40310000DB889BB2DBB203707A7846F28503C4F20003D3181846B97848F2A012C1F6FF720B464FEA43035B184FEA8303D318DB889BB24FEA13239BB2DBB20370BB6803F176
:403140000803BB60FB7B03F10103FB73FA7BFB789A42FFF482AE07F11007BD4680BD00BF80B485B000AF0346FB7148F29013C1F6FF731B78DBB246F23862C0F200024FEAA6
:40318000C303D3185B68FB60FB6803F10803FB60FB681B78FA799A4203D34FF00003FB6006E0FB794FEAC303FA68D3185B68FB60FB68184607F11407BD4680BC704700BF7E
:4031C00080B400AF48F29013C1F6FF731B78DBB246F23862C0F200024FEAC303D3185B681846BD4680BC704780B584B000AF48F29513C1F6FF731B78DBB203F1FF33DBB249
:403200001846FFF7ADFFB860BB68002B0FD0BB685B681B79FB71FB7903F102034FEAC303BA68D318BB60BB685B68FB6002E04FF00003FB60FB68184607F11007BD4680BDFF
:4032400080B582B000AF4FF00003FB7146F20403C4F200031B78DBB203F07F03BB71BB7903F1FF33DBB24FEA03137B71BB79002B78D0BB79082B75D8B979B87948F2A01205
:40328000C1F6FF7203464FEA43031B184FEA8303D3189B78DBB243F00103D8B248F2A012C1F6FF720B464FEA43035B184FEA8303D31802469A70B97948F2A012C1F6FF7247
:4032C0000B464FEA43035B184FEA8303D3184FF00002DA70B979B87948F2A012C1F6FF7203464FEA43031B184FEA8303D3185B78DBB243F00203D8B248F2A012C1F6FF7204
:403300000B464FEA43035B184FEA8303D31802465A70B97948F2A012C1F6FF720B464FEA43035B184FEA8303D3181B79DBB2DBB25BB2002B09DA7A7946F20E03C4F200039D
:40334000D3184FF08D021A7008E07A7946F20E03C4F20003D3184FF089021A70FEF724FD0346FB71FB79184607F10807BD4680BD80B582B000AF4FF00003FB7146F2040307
:40338000C4F200031B78DBB203F07F03BB71BB7903F1FF33DBB24FEA03137B71BB79002B00F0C180BB79082B00F2BD80B979B87948F2A012C1F6FF7203464FEA43031B18D9
:4033C0004FEA8303D3189B78DBB223F00103D8B248F2A012C1F6FF720B464FEA43035B184FEA8303D31802469A70B97948F2A012C1F6FF720B464FEA43035B184FEA830347
:40340000D3184FF00002DA707A7946F20C03C4F20003D3181A46797946F20C03C4F20003CB181B78DBB203F07F03DBB21370B979B87948F2A012C1F6FF7203464FEA43031F
:403440001B184FEA8303D3185B78DBB223F00203D8B248F2A012C1F6FF720B464FEA43035B184FEA8303D31802465A70B97948F2A012C1F6FF720B464FEA43035B184FEA98
:403480008303D3181B79DBB2DBB25BB2002B23DAB97948F2A012C1F6FF720B464FEA43035B184FEA8303D3185B78DBB2012B09D17A7946F20E03C4F20003D3184FF00C02F2
:4034C0001A702CE07A7946F20E03C4F20003D3184FF00D021A7022E0B97948F2A012C1F6FF720B464FEA43035B184FEA8303D3185B78DBB2012B09D17A7946F20E03C4F2F1
:403500000003D3184FF008021A7008E07A7946F20E03C4F20003D3184FF009021A70FEF743FC0346FB71FB79184607F10807BD4680BD00BF80B584B000AF4FF00103FB73A4
:4035400046F20403C4F200031B78BB7348F29513C1F6FF731B78DBB203F1FF33DBB21846FFF7FEFDB860BB685B681B79FB71BA7BFB799A4202D2BB7B002B03D04FF0000398
:40358000FB7318E0BA7BB97B48F28013C1F6FF735B5CD9B248F20C23C1F6FF739954BA7B46F20203C4F200031B78D9B248F28013C1F6FF739954FB7B184607F11007BD4673
:4035C00080BD00BF80B483B000AF4FF00003FB714FF4C043C4F200031B78DBB2DBB25BB2002B09DA46F20103C4F200031B78DBB2012B00D000E000BFFB79184607F10C07B7
:40360000BD4680BC704700BF80B582B002AF48F22413C1F6FF734FF001021A7048F24C13C1F6FF734FF000021A704FF0100000F09BFF4FF0100001F01DF94FF01D004FF000
:403640000701FDF749FC45F69603C4F200034FF007021A7045F69703C4F200034FF000021A7045F69E03C4F200034FF000021A7045F60733C4F2000345F60732C4F2000297
:403680001278D2B242F01802D2B21A7045F69303C4F200034FF000021A7045F68833C4F200034FF000021A7045F68933C4F200034FF000021A704FF4B143C4F200034FF029
:4036C0000A021A7045F68103C4F200034FF000021A7045F68303C4F200034FF000021A7045F68803C4F200034FF012021A7045F68903C4F200034FF013021A7045F68D0327
:40370000C4F200034FF000021A7044F60163C4F200034FF014021A704FF0010300934FF0050048F65C714FF400424FF0080300F0ADFA44F60E63C4F2000348F22412C1F6B9
:40374000FF721278D2B202F1FF3248F25011C1F6FF714FEA82028A1892781A7044F60C63C4F2000348F22412C1F6FF721278D2B202F1FF3148F25012C1F6FF7232F8212097
:403780001A8048F22413C1F6FF731B78DBB2184600F08CF9BD4680BD80B582B000AFFDF70DF90346FB7148F22413C1F6FF731B78BB7144F2AA33C4F2000344F2AA32C4F2F0
:4037C00000021278D2B242F00102D2B21A7044F2AA33C4F2000344F2AA32C4F200021278D2B242F01002D2B21A7044F2BA33C4F2000344F2BA32C4F200021278D2B242F08A
:403800000102D2B21A7044F2BA33C4F2000344F2BA32C4F200021278D2B242F01002D2B21A7044F2F863C4F2000344F2F862C4F200021278D2B242F00202D2B21A7044F247
:40384000F963C4F2000344F2F962C4F200021278D2B242F00202D2B21A7045F69103C4F2000345F69102C4F200021278D2B242F00302D2B21A704FF00300FDF7E9FA44F2E8
:40388000F863C4F2000344F2F862C4F200021278D2B222F00202D2B21A7044F2F963C4F2000344F2F962C4F200021278D2B222F00202D2B21A7045F67703C4F2000345F60B
:4038C0007702C4F200021278D2B242F00602D2B21A7045F68203C4F200034FF07A021A7044F2A133C4F2000344F2A132C4F200021278D2B242F00102D2B21A7044F2B13394
:40390000C4F2000344F2B132C4F200021278D2B242F00102D2B21A7044F2A233C4F2000344F2A232C4F200021278D2B242F00102D2B21A7044F2B233C4F2000344F2B232E7
:40394000C4F200021278D2B242F00102D2B21A704EF28023CEF200034FF000521A604FF46143CEF200034FF000521A60FB791846FDF728F807F10807BD4680BD80B500AFC7
:4039800048F24E13C1F6FF731B78002B10D148F24F13C1F6FF731B78DBB2002B01D1FFF733FE48F24E13C1F6FF734FF001021A70FFF7F2FE80BD00BF80B400AF4FF49C4324
:4039C000C4F200034FF49C42C4F200021278D2B242F00102D2B21A70BD4680BC704700BF80B485B000AF0346FB7148F24D13C1F6FF731B78DBB2002B06D048F24C13C1F62E
:403A0000FF731B78FB7308E044F60163C4F200031B78DBB203F00103FB73FB7B012B02D0FB79002BE1D0FB7B184607F11407BD4680BC704780B483B000AF44F61463C4F231
:403A400000031B78DBB203F00303FB7144F61063C4F200031B78DBB2BB71FB79022B05D144F61163C4F200031B7807E0FB79032B04D144F61263C4F200031B7848F24D13A8
:403A8000C1F6FF731B78DBB2002B06D048F24C13C1F6FF734FF000021A70BB795BB2184607F10C07BD4680BC704700BF80B582B000AF0346FB7148F24D13C1F6FF734FF003
:403AC00000021A70FB79012B40F0DC804FF49C43C4F200034FF038021A7044F60263C4F200034FF004021A7044F60363C4F200034FF007021A7044F60463C4F200034FF045
:403B000000021A7044F60563C4F200034FF000021A7044F60663C4F200034FF00F021A7044F60863C4F200034FF000021A7044F60963C4F200034FF000021A7044F60A63A3
:403B4000C4F200034FF000021A7044F61463C4F200034FF001021A7045F68403C4F200034FF014021A7045F68503C4F200034FF004021A7045F68603C4F200034FF009021F
:403B80001A7045F68703C4F200034FF000021A7045F68A03C4F200034FF022021A7045F68B03C4F200034FF024021A7045F68C03C4F200034FF001021A7045F68E03C4F282
:403BC00000034FF000021A7045F68F03C4F200034FF000021A7045F69003C4F200034FF00A021A7045F69103C4F200034FF043021A704FF0440000F017F945F69403C4F2A9
:403C000000034FF058021A7045F69503C4F200034FF000021A7045F69A03C4F200034FF005021A7045F69B03C4F200034FF001021A7045F69C03C4F200034FF000021A70EA
:403C400045F69D03C4F200034FF00A021A7048F21423C1F6FF734FF03E021A604FF07F004FF0010100F080FB40F202204FF0010100F000FD4FF01D0043F6D161C0F20001E2
:403C8000FDF7FAF807F10807BD4680BD80B586B000AFF871B9807A80BB7197F82030002B00F0BA8097F82030012B00F2B580FB7903F1FF33092B63D801A252F823F000BFC7
:403CC000E93C0000813D0000813D0000E93C0000813D0000813D00000F3D0000353D0000813D00005B3D0000BB790F2B07D94FF48C73C4F600131B78DBB2FB7544E04FF41A
:403D00008E73C4F600131B78DBB2FB753CE0BB790F2B07D940F21913C4F600131B78DBB2FB7531E040F21D13C4F600131B78DBB2FB7529E0BB790F2B07D94FF48D73C4F6DC
:403D400000131B78DBB2FB751EE04FF48F73C4F600131B78DBB2FB7516E0BB790F2B07D940F21B13C4F600131B78DBB2FB750BE040F21F13C4F600131B78DBB2FB7503E070
:403D80004FF00003FB7500BFBA8897F917304FEA4313D3183B617B883A6902FB03F3FB60FB684FEAD333BB82BB790D2B1AD8BA8ABB796FEA030303F10F0342FA03F3BB82E6
:403DC00097F8203003F1FF33BA7902F10102D1B248F25012C1F6FF724FEA8303D3180A469A700DE097F8203003F1FF3348F25012C1F6FF724FEA8303D3184FF00F029A7090
:403E000097F8203003F1FF3248F25013C1F6FF73B98A23F8221003E04FF00000FDF70CF807F11807BD4680BD80B584B000AF0346FB71FCF7C3FD0346FB7344F2F863C4F239
:403E4000000344F2F862C4F200021278D2B242F00302D2B21A7044F2F963C4F2000344F2F962C4F200021278D2B242F00302D2B21A7045F69203C4F20003FA791A704FF0F8
:403E80000300FCF7E5FF44F2F863C4F2000344F2F862C4F200021278D2B222F00302D2B21A7044F2F963C4F2000344F2F962C4F200021278D2B222F00302D2B21A70FB7B26
:403EC0001846FCF77FFD07F11007BD4680BD00BF80B400AFBD4680BC704700BFF8B500AF44F2A633C4F2000344F2A632C4F200021278D2B242F01002D2B21A704CF28073D4
:403F0000C4F200034CF28072C4F200021278D2B222F00102D2B21A704CF28873C4F200034FF03F021A704CF28C73C4F200034FF03F021A704FF44442C4F2000244F6F053B5
:403F4000C0F2000311461A464FF48073084611461A4600F023FF4FF44542C4F2000244F6F053C0F2000311461A464FF48073084611461A4600F012FF4FF44642C4F200025E
:403F800045F23033C0F2000311461A464FF48073084611461A4600F001FF4FF44042C4F2000244F6F063C0F2000311461A464FF40073084611461A4600F0F0FE4FF44242FA
:403FC000C4F2000245F2F003C0F2000311461A464FF40073084611461A4600F0DFFE4FF44742C4F2000245F2F023C0F20003104603F1400402461946D1F800E04E688D68DF
:40400000C968C2F800E056609560D16003F1100300F11000A342EDD14CF28C73C4F200034FF000021A704FF0000000F077F84FF0000000F087F84CF28473C4F200034FF0F4
:40404000F8021A70F8BD00BF80B400AF44F2A633C4F2000344F2A632C4F200021278D2B242F01002D2B21A7044F2B633C4F2000344F2B632C4F200021278D2B242F0100277
:40408000D2B21A704CF28073C4F200034CF28072C4F200021278D2B242F00102D2B21A70BD4680BC704700BF80B500AF48F25413C1F6FF731B78002B08D1FFF70FFF48F297
:4040C0005413C1F6FF734FF001021A70FFF7BCFF80BD00BF80B485B000AF0346FB71FB79002B06D14CF2AA73C4F200031B78FB730CE0FB79012B06D14CF2AE73C4F20003E4
:404100001B78FB7302E04FF00003FB73FB7B184607F11407BD4680BC704700BF80B483B000AF0346FB71FB7903F01F03FB714CF29873C4F20003FA791A7007F10C07BD4683
:4041400080BC704780B483B000AF0346FB71FB7903F00F03FB714CF29C73C4F20003FA791A7007F10C07BD4680BC704780B500AF00F054FC4FF0020000F09AFC4FF000006E
:4041800000F0C0FCFCF7AAFD03461A4648F25813C1F6FF731A70FCF7A1FD03461A4648F25913C1F6FF731A7045F23040C0F200004FF47A6100F040F846F2D030C0F200009C
:4041C0004FF0640100F084F880BD00BF80B500AF00F04CFC48F25613C1F6FF731B7818464FF00101FCF72CFC48F25713C1F6FF731B7818464FF00101FCF722FC4FF000002F
:4042000000F0AAFC00F064FB80BD00BF80B500AF48F25513C1F6FF731B78002B08D1FFF7A5FF48F25513C1F6FF734FF001021A70FFF7CCFF80BD00BF80B582B000AF78607B
:404240000B467B807B684FEA13439BB24FF001004FF001011A464FF4804300F05BFB03461A4648F25613C1F6FF731A7048F25813C1F6FF73197848F25813C1F6FF731B7847
:404280007A88084611461A464FF00103FCF762FD48F25813C1F6FF731A787B689BB2104619464FF4B742FCF793FD48F25613C1F6FF731A7848F25813C1F6FF731B78104649
:4042C0001946FCF797FC07F10807BD4680BD00BF80B582B000AF78600B467B807B684FEA13439BB24FF001004FF001011A464FF4804300F051FB03461A4648F25713C1F6B3
:40430000FF731A7048F25913C1F6FF73197848F25913C1F6FF731B787A88084611461A464FF00103FCF716FD48F25913C1F6FF731A787B689BB2104619464FF4B742FCF7FA
:4043400047FD48F25713C1F6FF731A7848F25913C1F6FF731B7810461946FCF74BFC07F10807BD4680BD00BF80B584B000AF02460B46FA807B7100F015F90346FB7300F087
:40438000E7F80346BB81FA88BB899A4200F0DC8044F2A233C4F200031B78DBB203F00103FB72FB7B002B32D1BB89002B02D0FB88002B2CD1BB89002B14D14FF48143C4F2C2
:4043C0000003FA881A8044F28203C4F2000344F28202C4F200021278D2B222F04002D2B21A70B1E044F28203C4F2000344F28202C4F200021278D2B242F04002D2B21A7041
:404400004FF48143C4F20003FA881A809CE0FB7A002B5CD044F20103C4F200034FF000021A7044F21003C4F200034FF001021A7044F21403C4F200034FF000021A7044F2C5
:404440000803C4F2000344F20802C4F200021278D2B202F07F02D2B21A7044F28203C4F200031B78DBB203F00803002B02D0FB88002B2CD144F20203C4F20003BA891A80E6
:4044800044F20103C4F200034FF007021A7000BF44F20103C4F200031B78DBB203F00103002BF5D144F2A233C4F2000344F2A232C4F200021278D2B222F00102D2B21A70C6
:4044C00044F20103C4F200034FF000021A7044F2A233C4F200031B78DBB203F00103002B1ED044F20203C4F20003FA881A8044F20103C4F200037A79002A02D04FF00302D4
:4045000001E04FF001021A7000BF44F20103C4F200031B78DBB203F00103002BF5D113E04FF48143C4F20003FA881A8044F2A233C4F2000344F2A232C4F200021278D1B2B2
:40454000FA7A0A43D2B21A7007F11007BD4680BD80B400AF4FF48143C4F200031B889BB21846BD4680BC704780B483B000AF0346FB7144F28203C4F2000344F28202C4F287
:4045800000021278D2B2D1B2FA7922F00702D2B20A43D2B2D2B21A7007F10C07BD4680BC704700BF80B400AF44F28203C4F200031B78DBB203F00703DBB21846BD4680BC19
:4045C000704700BF80B500AF00F048F844F2E950C0F2000000F00EF84FF0070000F01EF800F030F880BD00BF80B400AFBD4680BC704700BF80B485B000AF78604EF6085393
:40460000CEF200031B68FB60FB6803F1B4037A681A6007F11407BD4680BC704780B483B000AF0346FB714EF21D43CEF20003FA794FEA4212D2B21A7007F10C07BD4680BCE0
:40464000704700BF80B400AF4FF46143CEF200034FF000521A60BD4680BC704780B400AF4EF28013CEF200034FF000521A60BD4680BC704780B584B000AF02460B46FA8091
:404680007B7100F015F90346FB7300F0E7F80346BB81FA88BB899A4200F0DC8044F2A133C4F200031B78DBB203F00103FB72FB7B002B32D1BB89002B02D0FB88002B2CD140
:4046C000BB89002B14D14FF48243C4F20003FA881A8044F20213C4F2000344F20212C4F200021278D2B222F04002D2B21A70B1E044F20213C4F2000344F20212C4F200027C
:404700001278D2B242F04002D2B21A704FF48243C4F20003FA881A809CE0FB7A002B5CD044F20103C4F200034FF000021A7044F21403C4F200034FF001021A7044F21003EB
:40474000C4F200034FF000021A7044F20803C4F2000344F20802C4F200021278D2B202F07F02D2B21A7044F20213C4F200031B78DBB203F00803002B02D0FB88002B2CD16A
:4047800044F20203C4F20003BA891A8044F20103C4F200034FF007021A7000BF44F20103C4F200031B78DBB203F00103002BF5D144F2A133C4F2000344F2A132C4F2000225
:4047C0001278D2B222F00102D2B21A7044F20103C4F200034FF000021A7044F2A133C4F200031B78DBB203F00103002B1ED044F20203C4F20003FA881A8044F20103C4F2D7
:4048000000037A79002A02D04FF0030201E04FF001021A7000BF44F20103C4F200031B78DBB203F00103002BF5D113E04FF48243C4F20003FA881A8044F2A133C4F2000348
:4048400044F2A132C4F200021278D1B2FA7A0A43D2B21A7007F11007BD4680BD80B400AF4FF48243C4F200031B889BB21846BD4680BC704780B483B000AF0346FB7144F263
:404880000213C4F2000344F20212C4F200021278D2B2D1B2FA7922F00702D2B20A43D2B2D2B21A7007F10C07BD4680BC704700BF80B400AF44F20213C4F200031B78DBB2DF
:4048C00003F00703DBB21846BD4680BC704700BF80B400AF44F2A233C4F2000344F2A232C4F200021278D2B242F00202D2B21A7044F2B233C4F2000344F2B232C4F20002BA
:404900001278D2B242F00202D2B21A70BD4680BC704700BF80B584B002AFF871B971BA807B8048F22513C1F6FF734FF000021A7048F22513C1F6FF731978FA79BB794FF016
:40494000000000904FF000000190084611461A464FF00003FCF770F948F22513C1F6FF731978BA887B88084611461A46FCF7FEF848F22513C1F6FF731B7818464FF0020107
:40498000FCF7BCF848F22513C1F6FF731B78184607F10807BD4680BD80B584B002AFF871B971BA807B8048F22613C1F6FF734FF001021A7048F22613C1F6FF731978FA7993
:4049C000BB794FF0000000904FF000000190084611461A464FF00003FCF72EF948F22613C1F6FF731978BA887B88084611461A46FCF7BCF848F22613C1F6FF731B781846D8
:404A00004FF00201FCF77AF848F22613C1F6FF731B78184607F10807BD4680BD80B500AF45F62003C4F200034FF000021A7045F62103C4F200034FF000021A7045F687236D
:404A4000C4F2000345F68722C4F200021278D2B242F00802D2B21A704FF0000000F052F84FF0020000F024F880BD00BF80B400AF44F2A833C4F2000344F2A832C4F2000252
:404A80001278D2B242F00102D2B21A7044F2B833C4F2000344F2B832C4F200021278D2B242F00102D2B21A70BD4680BC704700BF80B483B000AF0346FB7145F62003C4F20E
:404AC000000345F62002C4F200021278D2B222F00202D2B21A7045F62003C4F2000345F62002C4F200021278D1B2FA7902F00202D2B20A43D2B21A7007F10C07BD4680BCA1
:404B0000704700BF80B582B000AF0346FB7145F62003C4F2000345F62002C4F200021278D2B222F00C02D2B21A7045F62003C4F2000345F62002C4F200021278D1B2FA7920
:404B400002F00C02D2B20A43D2B21A7000F014F807F10807BD4680BD80B483B000AF0346FB714FF4B743C4F20003FA791A7007F10C07BD4680BC704780B483B000AF45F603
:404B80002003C4F200031B78DBB203F00C034FEA9303DBB203F10603FB7144F20863C4F20003FA7902F1924202F590721278D2B21A7007F10C07BD4680BC704780B500AF28
:404BC0004FF0010000F048F880BD00BF80B400AF45F67703C4F2000345F67702C4F200021278D2B242F06002D2B21A7044F2A433C4F2000344F2A432C4F200021278D2B244
:404C000042F00402D2B21A7044F2B433C4F2000344F2B432C4F200021278D2B242F00402D2B21A70BD4680BC704700BF80B500AF48F25A13C1F6FF731B78002B08D148F2F6
:404C40005A13C1F6FF734FF001021A70FFF7B6FFFFF7BCFF80BD00BF80B483B000AF0346FB7145F65C03C4F2000345F65C02C4F200021278D2B222F00302D2B21A7045F69D
:404C80005C03C4F2000345F65C02C4F200021278D1B2FA7902F00302D2B20A43D2B21A7007F10C07BD4680BC704700BF80B483B000AF4FF00003BB714FF00003FB714FF400
:404CC000C043C4F200031B78DBB203F00303012B02D0022B07D01EE046F20403C4F200031B78FB7118E046F20403C4F200031B78DBB203F07F0148F2A012C1F6FF720B4600
:404D00004FEA43035B184FEA8303D31803F108039B78FB7100E000BF48F29C13C1F6FF731A68FB79D3181B78022B04D0032B04D0012B04D004E000BF02E000BF00E000BF4E
:404D4000BB79184607F10C07BD4680BC704700BF38B50E4D0E4B0024E81A8510AC4205D00B4951F8242090470134F7E701F068FC0849094A541AA5100024AC4205D0054BA4
:404D800053F8240080470134F7E738BD4C6600004C6600004C6600005466000010B50023934203D0CC5CC4540133F9E710BD82180346934202D003F8011BFAE770470000FB
:404DC00000000000105100405000C0510040100000000140001000140140000800400140000A004C01400002005001402000000020130025611780260100802620138026F2
:404E0000C20C8026E00E8026A40A802663171006860880266806806D6606802F2002106F008080262002806F008080262002806F2002806F211A40FE000080260222106603
:404E40000080106E0182802600000000000000000000000000000000000000000000000000000000000000000000000000000000000000000000000000000000000000000B
:404E800000000000000000000000000000000000000000000000000000000000000000000000000000000000000000000000000000000000000000000000000000000000F2
:404EC00000000000000000000000000000000000000000000000000000000000000000000000000000000000000000000000000000000000000000000000000000000000B2
:404F00000000000000000000000000000000000000000000000000000000000000000000000000000000000000000000000000000000000000000000000000000000000071
:404F40000000000000000000000000000000000000000000000000000000000000000000000000000000000000000000000000000000000000000000000000000000000031
:404F800000000000000000000000000000000000000000000000000000000000000000000000000000000000000000000000000000000000000000000000000000000000F1
:404FC00000000000000000000000000000000000000000000000000000000000000000000000000000000000000000000000000000000000000000000000000000000000B1
:405000000000000000000000000000000000000000000000000000000000000000000000000000000000000000000000000000000000000000000000000000000000000070
:405040000000000000000000000000000000000000000000000000000000000000000000000000000000000000000000000000000000000000000000000000000000000030
:4050800000000000000000000000000000000000000000000000000000000000000000000000000000000000000000000000000000000000000000000000000000000000F0
:4050C00000000000000000000000000000000000000000000000000000000000000000000000000000000000000000000008000091F93F003A31800091F93F00C6CE7F0018
:40510000DD0CC000000000000000000000000000000000000000000000000000000000000000000000000000000000000000000000000000000000000000000000000000C6
:40514000000000000000000000000000000000000000000000000000000000000000000000000000000000000000000000000000000000000000000000000000000000002F
:4051800000000000000000000000000000000000000000000000000000000000000000000000000000000000000000000000000000000000000000000000000000000000EF
:4051C00000000000000000000000000000000000000000000000000000000000000000000000000000000000000000000000000000000000000000000000000000000000AF
:40520000000000000000000000000000000000000000000000000000000000000000000000000000000000000000000000000000000000000000000000000000000000006E
:40524000000000000000000000000000000000000000000000000000000000000000000000000000000000000000000000000000000000000000000000000000000000002E
:4052800000000000000000000000000000000000000000000000000000000000000000000000000000000000000000000000000000000000000000000000000000000000EE
:4052C0000000000000000000000000000000000000000000000000000000000000000000000000000000000000000000000800000402000000000000020100007E3F0000E0
:40530000FF3F0000000000000000000000000000000000000000000000000000000000000000000000000000000000000000000021F805014210864063F811010489A4203A
:4053400001F805010000000000000000000000000000000000000000000000000000000000000000000000000000000000000000000000000000000000000000000000002E
:4053800000000000000000000000000000000000000000000000000000000000000000000000000000000000000000000000000000000000000000000000000000000000ED
:4053C00000000000000000000000000000000000000000000000000000000000000000000000000000000000000000000000000000000000000000000000000000000000AD
:40540000000000000000000000000000000000000000000000000000000000000000000000000000000000000000000000000000A5A29E9A9790857A736C615A4F4B443D12
:4054400036322F2F2B2B2B2F32393D48535A656C777E859097A2A5A9B0B0B0B0ACACA9A29E938C81776F655A4F483D3936322F2B2F322F32394148535D656C737E85909304
:405480009EA5A9ACB0B0B4B4B4B0ACA29A90857A6F6C61564F4B413936322F2F2F2F2F3239414B535D68737A8588909A9EA5A9ACACB0B0ACA9A29A938C81776F655D534B6A
:4054C000413D362F2F2B2F2B2F2F32363D444B565D656F7A8188909A9EA5ACACB0B0B4B0ACA59E938C81776F655A534B483D36322F2B2B2B2B2B3236414B565D686F7A81B2
:405500008C939EA2A9ACACACACACA9A29E9A9388817A7368615A4F484139393632323236363D444B535A656C737E8890979EA5A9ACB0B0B4B4B0ACA9A297938C857A776CCD
:40554000615A4F48443D3936363636393D41484F5A656C737E888C979EA2ACB4B7BBBBBBBBB7B0ACA9A29A8C857A6F685D564B4841413D3D3D3D3D41444B535A6168737A69
:40558000858C939A9EA5ACB0B4B4B7B7B4B0ACA59A938881776C655A534B4841413D3D393939393D444B5A5A656C777E859097A2ACB4BBC2C2C6C6C6C2BEB4B0A29A908828
:4055C0007E736861564F4844413D3D3D414144484B535A616C6F7A7E88909AA2A9ACB0B4B7B7BBBBB7B4ACAC9A97887E736C655A534B44413D39363636393D444B535A65B3
:405600006F7A8188939AA5ACB4B4BBBBBBBBBBB7B4B0A99E938881776F685A534F48444139393639393D41484F56616C737E85909AA2A9B0B4B7B7B7B7B7B4B0B0A59E97B4
:405640008C857A736C655A4F44413936363939393D3D44484F565A656C777E858C979EA2A2A5A5A5A59E9A938C85776F655A534841392B241D160E0B070707070407070B8A
:40568000161928323D484F5D656F7A7E88909A9EA5A9A9ACACACA9A5A297979088817A736C6865616165656C6F777E88939EA9B4BBC6D0D7DFE9EDF1F4F1F1EDE9E2DFD7B8
:4056C000CDC2BBB0A9A29A9088817A736F6C68686868686C737A818C939AA2ACB4BBC6CDD4D7DFE2E6E2E2DFDBD7CDC2BBACA2978C81776C615A4F4B44413941393D3D446E
:40570000444F535A61686F77818890979EA2A5A5A5A5A5A29E9A978C857A6F685D564B4139322B2420201D202024282F363D484F5A616F7A858C90979A9E9EA2A2A2A5A204
:405740009E9A978C857A73685D5653484139322F2B2828242828363D4448535A656C737A85909AA2A9ACB0B0ACACACA2A297908881776F655A4F4439362F2824201D202451
:40578000282F363D444F56616C737A8590979EA5A9ACB0B0B0B0ACA5A29790817A6F655D53484439322B28282828282F32393D484F5A6168737A818C909AA2A5A9ACACAC4C
:4057C000ACA9A5A297938881736C685A4F484139322F2B2B28282B2F32363D484F5A656F7A8590979EA5ACB0B0B0B4B4B4ACA9A29790857A6C685D534B443936322F2B2BC6
:405800002B2B32363D414B535D686F7A818C939AA2A5A9ACB4B4B4B4B4B0ACA59A9085776C65564F48413936322F2F2B2B2F2F363D414F565D68737A858C979EA5A9ACACB6
:40584000B0B0B0ACA9A59E9790857A736C61564F443D322F2B28242020242B3239414B535A656F77858C979EA2A9ACB0B0B4B0ACA59E9790857A6C65564B4139322F2B24EC
:4058800024242424282B323D444B535D686C777E858C93939E9A9E9E9E9E9A97908C857E776C655D534B413D322F282824202424282F363D484F565D686F777E8588909349
:4058C000979A9A9A9E9A97938C857E736C615D534B4139322B24201D1D1D2020282B3239444F565D686F7A818890979EA2A5A5A5A5A29E9790857E6F685D534B4139322FF5
:4059000028242424202424282F3639444B56616C737E818C939A9EA2A5A5A5A5A5A5A29A938C857E736C655A534B48413D3936363636393941414B535A616C737E85909AE0
:40594000A5A9B0B7BBBBBEBBBBB7B4ACA59A938881776C655A534F4B4B484B4B4B4F565D616C737E85909AA2ACB4BBC6C9D0D4D4D7DBDBDBD4D0C9C2BBB4A99E9790888123
:40598000776F6C6865615D5D5D61686F77818C979EACB4BEC9D0DBE2E6F1F4F1F8F8F4F1EDE6DBD7CDC2BBB4ACA59E90887E77736F6F7373777A81889097A2A9B0B7C2CD42
:4059C000D7DFE6EDF1F4F8F8F8F8F8F4F1E9DFD7C9BEB4A99E938881776C6C686868686C6F777E8590979EA9B7BEC6D0DBE2E9EDEDF1F1F1F1EDE9E2DBD4C6BEB4A9A29A3A
:405A00009088817A736F6C65656161656C6F7A818C939EA5B0B7C6CDD7DBDFE6E6E6E6E6E2DFDBD7CDC2BBB4ACA29790857A736C65615A5A565656565D686F77818C97A24C
:405A4000ACB4BBC2C9D0D4D7DBDBDBDBD7D0C9BEB4ACA29A9088817A6C655D5A53534F4F5353565A61686F7A8588939AA2ACB7BEC6CDD0D4D4D4D4D0CDC6BBB4ACA5978CF2
:405A8000857A736861564F48444144444144484B565A656F7A858C939EA5ACB0B7BBC2C6C6C6C6C6BEBEB7B0A59A93887E73685D534F4844413D413D3D4144484B535D68BC
:405AC000737A858C979EA2A9B0B7B7B7B7B7B7B4ACA9A297908881776C655A4F4841393936323636393D4148535A656C7781889097A2A5B0B4B7BBBBBBB7B4ACA59A90886E
:405B00008177736C655A4F483D392F322F2F2F32323D4448535A616C777E858C93979EA9A9A9B0B0B0ACACA29A93887E776C615A4F483D3932322F2B2B2B2B2F3239414B17
:405B4000535D656F778188939AA5A9ACB0B4B4B4B0ACA9A29E9790857A6F655A4F443D36282B2828242424282F3239444B565D68737E889097A2A5ACA9A9ACACA9A59E9358
:405B800090857A6F6C61564F4439322F2828242424282B2F363D444B565D656F7A8188939AA2A5A5A5A9A9A9A9A59E978C7E736C61564B4439322B2424241D2020242B2F05
:405BC00039444B5661686F777A818893979AA2A2A2A5A29E9A97908C817A736861564F4439362F2B28242424282B2F363D444F5A616C737E858C979E9E9EA5A2A5A2A2A208
:405C000097938881776F655A534B4139322B282828242424282B32394148535A6568737E858C979EA2A5A5A5A5A29E9A938C857A6F68615A4F4841362F282424202020244A
:405C4000282F363D444F5661686F7A818C979EA2A9A9A9ACA9A9A5A29A93857E73685A4F483D362F2B2824201D19191D24282F39444F5A616C777A858C93979A9A9EA2A24A
:405C8000A2A29A9790857E73685D534B413D2F2B2B28282424282B2F363D444B535D656F777E8590979E9EA2A2A2A29A9A979088817A6F6C615A4F483D362F2824242020A1
:405CC0002024242B3239414B535A656F7A8188939A9EA2A5A5A9A5A29E9A938C817A6F655D534B4439322B2828202424282B2F3239444B535A656F777E8190979A9EA2A2A6
:405D0000A5A5A5A29E9790887E736C615A534B4139322B2424201D1D2024283239414B535D686F7A8590979EA5A9A9A9ACA9A9A5A29A938C857773655A534B44413D39360D
:405D40002F2B2B2B2F32363944484F5A616C737A81888C93979A9EA2A2A29E9A938C8581776C655A53484139322B282424242428282F393D4B535D656F7A818890979EA200
:405D8000A2A5A5A5A5A29E9A9790887E776C615A4F483D362F2B2824242428282F363D48535A656F7A8188909AA2A9A9B0B0B4B0B0A9A29A938885776C615A4F44392F2BF7
:405DC0002824202024242B2F3639414B535A656C737E88939AA2A9ACACB0B0ACACACA29A90887E736861564F483D39322F2B28282B282F363D444B535D656F7A818C939E42
:405E0000A2ACACB4B4B7B4B4ACA59E9790857A776C655A4F443D36322F2F2F2F2F32363D444F5661686F7781859097A2A5A9ACACB0ACACA9A29A938881776F655D5A534B2C
:405E400044413936322F2F2F32363D4148535A656C737A859097A2A9ACB4B4B7B4B4B4ACA9A2978C857A736861564B483D3632322F2B2F32363D3D444B535D68737A8590CF
:405E800097A2ACB4B7B7B7B4B4ACA9A59E9790887E736861534B443D3636322F2F2B282B2B3239414B535D68737E88939EA5ACB4B7B7B7B4B4B0A5A29790857E776C655AE9
:405EC00053483D362F2B24242428282B3239414B565D68737E8590979EA9ACB0B4B4B4B4B0ACA59E978C817A6F6C5D5A4F48443D393636363636393D444B565D656F777E02
:405F00008590939EA2A9A9B4B4B7B7BBB7B4ACA99E9388817A6F655D534B484444413D3D3D3D41484B535A656C777E889097A2A9ACB4B4B4B4B4B0ACACA9A297938C817AD9
:405F40006F685D564B4441393632362F323239444B56616C737A858C909AA2A9B0B7BBBEBEBEBBB7B4ACA99E93887E7A6C655D534B44413D3D3D3D3D4144484F56656C773B
:405F8000818890979EA5ACB4BBC2C9C6C9C9C2BBB4A99E90857E736C655A564B4844413D3D3D3D413D484F5661686F778188939AA5ACB4B7BEBEBEBEBBBBB4B0A9A59E9704
:405FC0008C857E776C5D564F4B444141413D44444B535A6168737A818590939EA2A9ACB0B7B7B7BBBBB7B4ACA99E978C857A7365615A4B48413D39393639393D41484F5AB2
:40600000656C777E85909AA2ACB4BEBEC2C2C2BEBEB7B0A5A2978881776F655D534B443D393939363636393D3D484B535A5D656C777E888C979EA2A2A2A2A2A29A979088D5
:406040007E736C61564B4136281D190E0B070400000004070E19242F39484F5A656C777E88939A9EA5ACB0B4B4B4B0B0ACA9A59E9A979088817A777773736F737373777A1A
:40608000818C97A2ACB7C2CDD4DBE6E9EDF4F8FBFFFFFBF8EDE2DBD0C6BEB4A59A9388817A6F6F6C6C6868686C6F737A8188939AA2ACB4BEC6CDD4DBDFDFE2E6E2E2DFDB6C
:4060C000D0CDC2B7AC9E90857A6F61564B443D36322F2F32363D444B535A6168737A8190939AA2A5A5A5A5A2A5A29E9790887E776C615A4F483D3D362F2B2824242424241F
:40610000282F363D484F5A656C777E88909A9EA5A9ACB0ACACA9A59E9790887E776F655A4F44392F24241919191D1D24282F39414B535D686F7A8188939AA2A5A9A9ACAC9E
:40614000A9A29E9790857E736861564F484139322F2B282828282B2F394148535A656C777E8890979EA5A9A9A9A9A9A5A2A2978C857E776C61564F443D362F2B28282828C6
:40618000282B2F363D444F56616C737A818890979EA5A9ACACB0ACACA59E978C857E776C655D564F443D362F2B2B282B2B2F323941484F5D656F7A818C939AA2A9ACB0B0B0
:4061C000B0B0ACA9A59E938C817A6F655A4F484139322F2B282828282B32363D444F5A656F737E858C939A9EA2A5A9A9A9A9A5A29E9790857A6F6861534B443D36322F2BB5
:40620000282B2B2B2F363D484F5A656F778188909A9EA5ACACACACACACA9A59E9790887E736C655D534B413D36322B2B2B2B2B2F32394148535A656C737A858C979EA2A22C
:40624000A5A5A5A5A5A29E9A938C857E736C615A4F443D362B2824242428282F363D414B4F565D686F77818890979EA2A5A5A9A5A59E9A9385817A6C615A4F444139322B33
:4062800028242420242024282F363D48536168737A859097A2A9A9ACACB0B0ACA9A29790857A6F685D564F443D39362F2B282824202020242B3239444B56616C77818893E0
:4062C000979EA2A2A5A2A29E9A9790857E736C615A4F483D392F2B2824242424282B32363D484F5D656F778188939AA2A5A9A9A9A9A9A5A5A29E93887E776C655A534B4479
:40630000413D393936363236363D444B535A61686F7E859097A2A9B0B4B7BBBBBBBEBBB7B0ACA59E938C857A736C655D5653534F4B4B4B4B4B535A656F7A858C939EA5AC13
:40634000B7BEC6D0D4D7D7DBDBDBD7D0CDC2BBB0A99E938C857A736F68656161616165686F778188939AA5B0B7C2CDD4DBE2E2E6E9EDF1F4F8F1EDE6DFD4CDC2B4ACA29A94
:406380009088817E7777736F7373777A7E858C97A2ACB4BBC2CDD4DBE2E9F1F4F8F8FBFBF8F4F1E9E2D7D0C6BBB4A9A29A9088817A77736F6F6F73777E85939AA5B0B7BED1
:4063C000C9CDD4DBDFE2E9E9E9E9E9E9E6E2DBD480858A8F94999EA3A8ADB2B8BDC2C7CCD1D6DBE0E6EBF0F5FAFFFAF5F0EBE6E0DBD6D1CCC7C2BDB8B2ADA8A39E99948F5C
:406400008A85807A75706B66615C57524C47423D38332E29241F19140F0A0500050A0F14191F24292E33383D42474D52575C61666B70757A12010002FF000008B40475E1B2
:4064400000000102000100000902570001010380280904000000FF0000050904000102FF0000090705810208000A0705020208000A0904000202FF0000070705830208006D
:406480000A0705040208000A0904000302FF000008070585010800010705060108000100040309042C0343007900700072006500730073002000530065006D0069006300A1
:4064C0006F006E0064007500630074006F0072001403540065007300740065002000550053004200200343006F006E00660069006700750072006100740069006F006E008D
:40650000200031001A035A00650072006F00420061006E00640069007700740068001C035A00650072006F00420061006E00640077006900640074006800280349006E00E6
:406540007400650072007200750070007400200049006E0074006500720066006100630065001E03420075006C006B00200049006E007400650072006600610063006500F4
:406580002C03490073006F006300680072006F006E006F0075007300200049006E0074006500720066006100630065002603420075006C006B00200049006E0074006500F8
:4065C0007200660061006300650020004100440043000000000181020800FF00000102020800FF00000283020800FF00000204020800FF00000385010800FF0000030601E4
:406600000800FF00FF000000010000004864000006000000D46500000000000000000000000000000466000001000000346400000100000008660000010000002866000067
:40664000F8B500BFF8BC08BC9E467047510000000D040000F8B500BFF8BC08BC9E4670472D000000786600000881FF1F20000000F80000000000000000000000807F0000F1
:40668000030000008014EF03D0010100420000000000E88001FFFF0000000000000000000000000000000000000000000000000000000000000000000000000000000000D6
:4066C000000000000000000000000000000000000000000000000000000000000000000000000000000000000000000000000000000000000000000000000000000000009A
:406700000000000000000000000000000000000000000000000000000000000000000000000000000000000000000000000000000000000000000000000000000000000059
:406740000000000000000000000000000000000000000000000000000000000000000000000000000000000000000000000000000000000000000000000000000000000019
:4067800000000000000000000000000000000000000000000000000000000000000000000000000000000000000000000000000000000000000000000000000000000000D9
:020000040003F7
:0200000480007A
:400000000145004001520040015A0040020301400207014003090140040A0140010B0140020D0140011501400217014002190140011B0140084001400A410140044201403D
:4000400007430140044401400445014006460140104701400948014002490140044C0140034D0140035101407E027C408701E201E601E604EA01B502E604EA01B802BE0180
:40008000D804DF011D02E201E601EC30EA08EE02EA08EE02EC3032023340350236403B803F40CCF0CE3030208202834097C09D029F40A642CC10E280E68097C09D02A420A5
:4000C000A640810297C09D02A640A820E620EA8030207C01CC08DE01824083019401A4204508940196809701A420D0010A800B010F48124016808304968097019E80A42053
:40010000A508AA80B401C20FC40CEC082080234025109740AE40AF40C860EA10EE40B040B510A420A508AE40AF40B020B508EC0C00AA010A10020000000000000000010012
:400140000000000000000000C000000000000000000001000302180100000000000000000000000000000000000000000000000000000000000000000000000000000000A0
:40018000000000000000000000000000000000000000000000000000000000000000000000000000000000000000000000000000000000000000000000000000000000003F
:4001C00000000000000000000000000000000000000000000000000000000000000000000000000000000000000000000000000000000000000000000000000000000000FF
:4002000000000000000000000000000000000000000000000000000000000000000000000000000000000000000000000000000000000000000000000000000000000000BE
:40024000000000000000000000000000000000000000000000000000000000000000000000000000000000000000000000000000000000000000000000000000000000007E
:0200000490006A
:0400000000004005B7
:0200000490105A
:04000000BC90ACAF55
:0200000490303A
:02000000F65BAD
:0200000490402A
:4000000000000000000000000000000000000000000000000000000000000000000000000000000000000000000000000000000000000000000000000000000000000000C0
:400040000000000000000000000000000000000000000000000000000000000000000000000000000000000000000000000000000000000000000000000000000000000080
:400080000000000000000000000000000000000000000000000000000000000000000000000000000000000000000000000000000000000000000000000000000000000040
:4000C0000000000000000000000000000000000000000000000000000000000000000000000000000000000000000000000000000000000000000000000000000000000000
:0200000490501A
:0C00000000012E12306900012E3E26C4C3
:00000001FF